:100000009711007E938101801711007E130181FFFB
:100010003304010097020000938282329303200090
:10002000B3835300170E007E130ECEFD63DC720007
:10003000039302009382220023106E00130E2E0001
:100040006FF0DFFE130300009702007E9382A2FB95
:1000500093030001B383530063D8720023906200BE
:0C006000938222006FF05FFF6F004000F1
:10006C00130101FF23261100EF008024EF00C028AC
:10007C00EF004004EF008027631A0500EF00C00278
:10008C0063160500EF00C0036FF09FFF930700009D
:10009C00E78007008320C100130500001301010154
:1000AC00678000000000000013050000678000005E
:1000BC000000000013050000678000000000000035
:1000CC00130101FF2322910023202101B70400809A
:1000DC0037090080232481002300090003A4440075
:1000EC002326110013090900938444006308940C1F
:1000FC000347940083478400131787003367F70086
:10010C008347A4009397070133E7E7008347B400C4
:10011C0093978701B3E7E700639C070283470900C5
:10012C006394070A834714000347040093978700DE
:10013C0033E7E70083472400034434009397070117
:10014C00B3E7E700131484013364F4006FF01FFA73
:10015C000347D4008347C400131787003367F700A5
:10016C008347E4009397070133E7E7008347F400E4
:10017C0093978701B3E7E700E38207FA034514017D
:10018C000347040123040400131585003365E500BF
:10019C0003472401A30404002305040013170701DB
:1001AC003367A70003453401A3050400131585012B
:1001BC003365E500E78007006FF05FF68324840069
:1001CC0013048400639084028320C1000324810003
:1001DC0083244100032901001305000013010101D0
:1001EC006780000003C7940083C78400131787003F
:1001FC003367F70083C7A4009397070133E7E70041
:10020C0083C7B40093978701B3E7E70063860706BB
:10021C0003C7D40083C7C400131787003367F700E4
:10022C0083C7E4009397070133E7E70083C7F40023
:10023C0093978701B3E7E7006380070403C51401B4
:10024C0003C7040123840400131585003365E500FE
:10025C0003C72401A384040023850400131707019A
:10026C003367A70003C53401A3850400131585016A
:10027C003365E500E780070083470900E39607F440
:10028C0083C7140003C704009397870033E7E70084
:10029C0083C7240083C4340093970701B3E7E700B6
:1002AC0093948401B3E4F4006FF0DFF100000000DC
:1002BC0037070080130707008307070063D2070284
:1002CC00B7070080938747009386870023A0F70029
:1002DC0023A2F70023A4D70023A6D70023000700EE
:1002EC0013050000678000000000000013050000EB
:1002FC00678000000000000013050000678000000C
:01030C0000F0
:100310001400000000000000017A5200017C01017D
:100320001B0D020701000000100000001C0000006F
:0C033000D0FCFFFF6C000000000000008B
:02033C0080003F
:0400000500002000F5
:00000001FF
