:1000000037010100EF0080076F000000130101FEBF
:10001000232E1100232C8100232A910013040102B6
:100020002326A4FE0327C4FE9307100063C6E7003F
:100030008327C4FE6F0000038327C4FE9387F7FF66
:1000400013850700EFF09FFC930405008327C4FE8F
:100050009387E7FF13850700EFF05FFB9307050029
:10006000B387F400138507008320C10103248101B5
:10007000832441011301010267800000130101FD87
:100080002326110223248102130401039307C011C4
:1000900003A6070083A6470003A7870083A7C7001E
:1000A000232EC4FC2320D4FE2322E4FE2324F4FECA
:1000B000232604FE6F0040048327C4FE9397270085
:1000C000130704FFB307F70083A7C7FE13850700D4
:1000D000EFF0DFF3130705008327C4FE9397270093
:1000E000930604FFB387F60023A6E7FE8327C4FE2A
:1000F000938717002326F4FE0327C4FE93073000DE
:10010000E3DCE7FA93070000138507008320C102B0
:0C0110000324810213010103678000003A
:10011C0001000000020000000300000004000000C9
:00000001FF
