:1000000037010100EF0080006F000000130101FEC6
:10001000232E810013040102232604FE6F00000337
:10002000130700078327C4FE93972700B307F70041
:1000300003A70700832780083307F7002324E0087D
:100040008327C4FE938717002326F4FE93076000DE
:100050000327C4FEE346F7FC1300000013850700E6
:0C0060000324C1011301010267800000AD
:04006C00060000008A
:10007000010000000A00000004000000050000006C
:0800800006000000070000006B
:00000001FF
